{
  "_format": "hh-sol-artifact-1",
  "contractName": "ReiToken",
  "sourceName": "contracts/ReiToken.sol",
  "abi": [
    {
      "inputs": [
        {
          "internalType": "address",
          "name": "spender",
          "type": "address"
        },
        {
          "internalType": "uint256",
          "name": "allowance",
          "type": "uint256"
        },
        {
          "internalType": "uint256",
          "name": "needed",
          "type": "uint256"
        }
      ],
      "name": "ERC20InsufficientAllowance",
      "type": "error"
    },
    {
      "inputs": [
        {
          "internalType": "address",
          "name": "sender",
          "type": "address"
        },
        {
          "internalType": "uint256",
          "name": "balance",
          "type": "uint256"
        },
        {
          "internalType": "uint256",
          "name": "needed",
          "type": "uint256"
        }
      ],
      "name": "ERC20InsufficientBalance",
      "type": "error"
    },
    {
      "inputs": [
        {
          "internalType": "address",
          "name": "approver",
          "type": "address"
        }
      ],
      "name": "ERC20InvalidApprover",
      "type": "error"
    },
    {
      "inputs": [
        {
          "internalType": "address",
          "name": "receiver",
          "type": "address"
        }
      ],
      "name": "ERC20InvalidReceiver",
      "type": "error"
    },
    {
      "inputs": [
        {
          "internalType": "address",
          "name": "sender",
          "type": "address"
        }
      ],
      "name": "ERC20InvalidSender",
      "type": "error"
    },
    {
      "inputs": [
        {
          "internalType": "address",
          "name": "spender",
          "type": "address"
        }
      ],
      "name": "ERC20InvalidSpender",
      "type": "error"
    },
    {
      "inputs": [],
      "name": "InvalidInitialization",
      "type": "error"
    },
    {
      "inputs": [],
      "name": "NotInitializing",
      "type": "error"
    },
    {
      "anonymous": false,
      "inputs": [
        {
          "indexed": true,
          "internalType": "address",
          "name": "owner",
          "type": "address"
        },
        {
          "indexed": true,
          "internalType": "address",
          "name": "spender",
          "type": "address"
        },
        {
          "indexed": false,
          "internalType": "uint256",
          "name": "value",
          "type": "uint256"
        }
      ],
      "name": "Approval",
      "type": "event"
    },
    {
      "anonymous": false,
      "inputs": [
        {
          "indexed": false,
          "internalType": "uint64",
          "name": "version",
          "type": "uint64"
        }
      ],
      "name": "Initialized",
      "type": "event"
    },
    {
      "anonymous": false,
      "inputs": [
        {
          "indexed": true,
          "internalType": "address",
          "name": "from",
          "type": "address"
        },
        {
          "indexed": true,
          "internalType": "address",
          "name": "to",
          "type": "address"
        },
        {
          "indexed": false,
          "internalType": "uint256",
          "name": "value",
          "type": "uint256"
        }
      ],
      "name": "Transfer",
      "type": "event"
    },
    {
      "inputs": [
        {
          "internalType": "address",
          "name": "owner",
          "type": "address"
        },
        {
          "internalType": "address",
          "name": "spender",
          "type": "address"
        }
      ],
      "name": "allowance",
      "outputs": [
        {
          "internalType": "uint256",
          "name": "",
          "type": "uint256"
        }
      ],
      "stateMutability": "view",
      "type": "function"
    },
    {
      "inputs": [
        {
          "internalType": "address",
          "name": "spender",
          "type": "address"
        },
        {
          "internalType": "uint256",
          "name": "amount",
          "type": "uint256"
        }
      ],
      "name": "approve",
      "outputs": [
        {
          "internalType": "bool",
          "name": "",
          "type": "bool"
        }
      ],
      "stateMutability": "nonpayable",
      "type": "function"
    },
    {
      "inputs": [
        {
          "internalType": "address",
          "name": "account",
          "type": "address"
        }
      ],
      "name": "balanceOf",
      "outputs": [
        {
          "internalType": "uint256",
          "name": "",
          "type": "uint256"
        }
      ],
      "stateMutability": "view",
      "type": "function"
    },
    {
      "inputs": [],
      "name": "decimals",
      "outputs": [
        {
          "internalType": "uint8",
          "name": "",
          "type": "uint8"
        }
      ],
      "stateMutability": "view",
      "type": "function"
    },
    {
      "inputs": [
        {
          "internalType": "string",
          "name": "name",
          "type": "string"
        },
        {
          "internalType": "string",
          "name": "symbol",
          "type": "string"
        }
      ],
      "name": "initialize",
      "outputs": [],
      "stateMutability": "nonpayable",
      "type": "function"
    },
    {
      "inputs": [
        {
          "internalType": "address",
          "name": "to",
          "type": "address"
        },
        {
          "internalType": "uint256",
          "name": "amount",
          "type": "uint256"
        }
      ],
      "name": "mint",
      "outputs": [],
      "stateMutability": "nonpayable",
      "type": "function"
    },
    {
      "inputs": [],
      "name": "name",
      "outputs": [
        {
          "internalType": "string",
          "name": "",
          "type": "string"
        }
      ],
      "stateMutability": "view",
      "type": "function"
    },
    {
      "inputs": [],
      "name": "symbol",
      "outputs": [
        {
          "internalType": "string",
          "name": "",
          "type": "string"
        }
      ],
      "stateMutability": "view",
      "type": "function"
    },
    {
      "inputs": [],
      "name": "totalSupply",
      "outputs": [
        {
          "internalType": "uint256",
          "name": "",
          "type": "uint256"
        }
      ],
      "stateMutability": "view",
      "type": "function"
    },
    {
      "inputs": [
        {
          "internalType": "address",
          "name": "to",
          "type": "address"
        },
        {
          "internalType": "uint256",
          "name": "value",
          "type": "uint256"
        }
      ],
      "name": "transfer",
      "outputs": [
        {
          "internalType": "bool",
          "name": "",
          "type": "bool"
        }
      ],
      "stateMutability": "nonpayable",
      "type": "function"
    },
    {
      "inputs": [
        {
          "internalType": "address",
          "name": "from",
          "type": "address"
        },
        {
          "internalType": "address",
          "name": "to",
          "type": "address"
        },
        {
          "internalType": "uint256",
          "name": "value",
          "type": "uint256"
        }
      ],
      "name": "transferFrom",
      "outputs": [
        {
          "internalType": "bool",
          "name": "",
          "type": "bool"
        }
      ],
      "stateMutability": "nonpayable",
      "type": "function"
    }
  ],
  "bytecode": "0x608060405234801561001057600080fd5b50610c9a806100206000396000f3fe608060405234801561001057600080fd5b50600436106100a95760003560e01c806340c10f191161007157806340c10f19146101425780634cd88b761461015757806370a082311461016a57806395d89b41146101a0578063a9059cbb146101a8578063dd62ed3e146101bb57600080fd5b806306fdde03146100ae578063095ea7b3146100cc57806318160ddd146100ef57806323b872dd14610120578063313ce56714610133575b600080fd5b6100b66101ce565b6040516100c391906108b6565b60405180910390f35b6100df6100da366004610920565b610291565b60405190151581526020016100c3565b7f52c63247e1f47db19d5ce0460030c497f067ca4cebf71ba98eeadabe20bace02545b6040519081526020016100c3565b6100df61012e36600461094a565b6102a6565b604051601281526020016100c3565b610155610150366004610920565b6102ca565b005b610155610165366004610a29565b6102d8565b610112610178366004610a8d565b6001600160a01b03166000908152600080516020610c45833981519152602052604090205490565b6100b6610425565b6100df6101b6366004610920565b610464565b6101126101c9366004610aa8565b61047c565b7f52c63247e1f47db19d5ce0460030c497f067ca4cebf71ba98eeadabe20bace038054606091600080516020610c458339815191529161020d90610adb565b80601f016020809104026020016040519081016040528092919081815260200182805461023990610adb565b80156102865780601f1061025b57610100808354040283529160200191610286565b820191906000526020600020905b81548152906001019060200180831161026957829003601f168201915b505050505091505090565b600061029d83836104c6565b90505b92915050565b6000336102b48582856104d4565b6102bf85858561053f565b506001949350505050565b6102d482826105a3565b5050565b7ff0c57e16840df040f15088dc2f81fe391c3923bec73e23a9662efc9c229c6a008054600160401b810460ff16159067ffffffffffffffff1660008115801561031e5750825b905060008267ffffffffffffffff16600114801561033b5750303b155b905081158015610349575080155b156103675760405163f92ee8a960e01b815260040160405180910390fd5b845467ffffffffffffffff19166001178555831561039157845460ff60401b1916600160401b1785555b6103d6604051806040016040528060088152602001672932b4aa37b5b2b760c11b8152506040518060400160405280600381526020016252454960e81b8152506105d9565b831561041c57845460ff60401b19168555604051600181527fc7f505b2f371ae2175ee4913f4499e1f2633a7b5936321eed1cdaeb6115181d29060200160405180910390a15b50505050505050565b7f52c63247e1f47db19d5ce0460030c497f067ca4cebf71ba98eeadabe20bace048054606091600080516020610c458339815191529161020d90610adb565b60003361047281858561053f565b5060019392505050565b6001600160a01b0391821660009081527f52c63247e1f47db19d5ce0460030c497f067ca4cebf71ba98eeadabe20bace016020908152604080832093909416825291909152205490565b6000336104728185856105eb565b60006104e0848461047c565b90506000198114610539578181101561052a57604051637dc7a0d960e11b81526001600160a01b038416600482015260248101829052604481018390526064015b60405180910390fd5b610539848484840360006105f4565b50505050565b6001600160a01b03831661056957604051634b637e8f60e11b815260006004820152602401610521565b6001600160a01b0382166105935760405163ec442f0560e01b815260006004820152602401610521565b61059e8383836106dc565b505050565b6001600160a01b0382166105cd5760405163ec442f0560e01b815260006004820152602401610521565b6102d4600083836106dc565b6105e161081a565b6102d48282610865565b61059e83838360015b600080516020610c458339815191526001600160a01b03851661062d5760405163e602df0560e01b815260006004820152602401610521565b6001600160a01b03841661065757604051634a1406b160e11b815260006004820152602401610521565b6001600160a01b038086166000908152600183016020908152604080832093881683529290522083905581156106d557836001600160a01b0316856001600160a01b03167f8c5be1e5ebec7d5bd14f71427d1e84f3dd0314c0f7b2291e5b200ac8c7c3b925856040516106cc91815260200190565b60405180910390a35b5050505050565b600080516020610c458339815191526001600160a01b038416610718578181600201600082825461070d9190610b15565b9091555061078a9050565b6001600160a01b0384166000908152602082905260409020548281101561076b5760405163391434e360e21b81526001600160a01b03861660048201526024810182905260448101849052606401610521565b6001600160a01b03851660009081526020839052604090209083900390555b6001600160a01b0383166107a85760028101805483900390556107c7565b6001600160a01b03831660009081526020829052604090208054830190555b826001600160a01b0316846001600160a01b03167fddf252ad1be2c89b69c2b068fc378daa952ba7f163c4a11628f55a4df523b3ef8460405161080c91815260200190565b60405180910390a350505050565b7ff0c57e16840df040f15088dc2f81fe391c3923bec73e23a9662efc9c229c6a0054600160401b900460ff1661086357604051631afcd79f60e31b815260040160405180910390fd5b565b61086d61081a565b600080516020610c458339815191527f52c63247e1f47db19d5ce0460030c497f067ca4cebf71ba98eeadabe20bace036108a78482610b84565b50600481016105398382610b84565b600060208083528351808285015260005b818110156108e3578581018301518582016040015282016108c7565b506000604082860101526040601f19601f8301168501019250505092915050565b80356001600160a01b038116811461091b57600080fd5b919050565b6000806040838503121561093357600080fd5b61093c83610904565b946020939093013593505050565b60008060006060848603121561095f57600080fd5b61096884610904565b925061097660208501610904565b9150604084013590509250925092565b634e487b7160e01b600052604160045260246000fd5b600082601f8301126109ad57600080fd5b813567ffffffffffffffff808211156109c8576109c8610986565b604051601f8301601f19908116603f011681019082821181831017156109f0576109f0610986565b81604052838152866020858801011115610a0957600080fd5b836020870160208301376000602085830101528094505050505092915050565b60008060408385031215610a3c57600080fd5b823567ffffffffffffffff80821115610a5457600080fd5b610a608683870161099c565b93506020850135915080821115610a7657600080fd5b50610a838582860161099c565b9150509250929050565b600060208284031215610a9f57600080fd5b61029d82610904565b60008060408385031215610abb57600080fd5b610ac483610904565b9150610ad260208401610904565b90509250929050565b600181811c90821680610aef57607f821691505b602082108103610b0f57634e487b7160e01b600052602260045260246000fd5b50919050565b808201808211156102a057634e487b7160e01b600052601160045260246000fd5b601f82111561059e57600081815260208120601f850160051c81016020861015610b5d5750805b601f850160051c820191505b81811015610b7c57828155600101610b69565b505050505050565b815167ffffffffffffffff811115610b9e57610b9e610986565b610bb281610bac8454610adb565b84610b36565b602080601f831160018114610be75760008415610bcf5750858301515b600019600386901b1c1916600185901b178555610b7c565b600085815260208120601f198616915b82811015610c1657888601518255948401946001909101908401610bf7565b5085821015610c345787850151600019600388901b60f8161c191681555b5050505050600190811b0190555056fe52c63247e1f47db19d5ce0460030c497f067ca4cebf71ba98eeadabe20bace00a2646970667358221220ea84b0f8c3b8a53496e73741ca50d364d5915a3cb32059f43e507732361297ca64736f6c63430008140033",
  "linkReferences": {},
  "deployedLinkReferences": {}
}