{
    "contractName": "REIGToken",
    "abi": [
        {
            "inputs": [
                {
                    "internalType": "address",
                    "name": "spender",
                    "type": "address"
                },
                {
                    "internalType": "uint256",
                    "name": "allowance",
                    "type": "uint256"
                },
                {
                    "internalType": "uint256",
                    "name": "needed",
                    "type": "uint256"
                }
            ],
            "name": "ERC20InsufficientAllowance",
            "type": "error"
        },
        {
            "inputs": [
                {
                    "internalType": "address",
                    "name": "sender",
                    "type": "address"
                },
                {
                    "internalType": "uint256",
                    "name": "balance",
                    "type": "uint256"
                },
                {
                    "internalType": "uint256",
                    "name": "needed",
                    "type": "uint256"
                }
            ],
            "name": "ERC20InsufficientBalance",
            "type": "error"
        },
        {
            "inputs": [
                {
                    "internalType": "address",
                    "name": "approver",
                    "type": "address"
                }
            ],
            "name": "ERC20InvalidApprover",
            "type": "error"
        },
        {
            "inputs": [
                {
                    "internalType": "address",
                    "name": "receiver",
                    "type": "address"
                }
            ],
            "name": "ERC20InvalidReceiver",
            "type": "error"
        },
        {
            "inputs": [
                {
                    "internalType": "address",
                    "name": "sender",
                    "type": "address"
                }
            ],
            "name": "ERC20InvalidSender",
            "type": "error"
        },
        {
            "inputs": [
                {
                    "internalType": "address",
                    "name": "spender",
                    "type": "address"
                }
            ],
            "name": "ERC20InvalidSpender",
            "type": "error"
        },
        {
            "inputs": [],
            "name": "InvalidInitialization",
            "type": "error"
        },
        {
            "inputs": [],
            "name": "NotInitializing",
            "type": "error"
        },
        {
            "anonymous": false,
            "inputs": [
                {
                    "indexed": true,
                    "internalType": "address",
                    "name": "owner",
                    "type": "address"
                },
                {
                    "indexed": true,
                    "internalType": "address",
                    "name": "spender",
                    "type": "address"
                },
                {
                    "indexed": false,
                    "internalType": "uint256",
                    "name": "value",
                    "type": "uint256"
                }
            ],
            "name": "Approval",
            "type": "event"
        },
        {
            "anonymous": false,
            "inputs": [
                {
                    "indexed": false,
                    "internalType": "uint64",
                    "name": "version",
                    "type": "uint64"
                }
            ],
            "name": "Initialized",
            "type": "event"
        },
        {
            "anonymous": false,
            "inputs": [
                {
                    "indexed": true,
                    "internalType": "address",
                    "name": "from",
                    "type": "address"
                },
                {
                    "indexed": true,
                    "internalType": "address",
                    "name": "to",
                    "type": "address"
                },
                {
                    "indexed": false,
                    "internalType": "uint256",
                    "name": "value",
                    "type": "uint256"
                }
            ],
            "name": "Transfer",
            "type": "event"
        },
        {
            "inputs": [
                {
                    "internalType": "address",
                    "name": "owner",
                    "type": "address"
                },
                {
                    "internalType": "address",
                    "name": "spender",
                    "type": "address"
                }
            ],
            "name": "allowance",
            "outputs": [
                {
                    "internalType": "uint256",
                    "name": "",
                    "type": "uint256"
                }
            ],
            "stateMutability": "view",
            "type": "function"
        },
        {
            "inputs": [
                {
                    "internalType": "address",
                    "name": "spender",
                    "type": "address"
                },
                {
                    "internalType": "uint256",
                    "name": "value",
                    "type": "uint256"
                }
            ],
            "name": "approve",
            "outputs": [
                {
                    "internalType": "bool",
                    "name": "",
                    "type": "bool"
                }
            ],
            "stateMutability": "nonpayable",
            "type": "function"
        },
        {
            "inputs": [
                {
                    "internalType": "address",
                    "name": "account",
                    "type": "address"
                }
            ],
            "name": "balanceOf",
            "outputs": [
                {
                    "internalType": "uint256",
                    "name": "",
                    "type": "uint256"
                }
            ],
            "stateMutability": "view",
            "type": "function"
        },
        {
            "inputs": [],
            "name": "decimals",
            "outputs": [
                {
                    "internalType": "uint8",
                    "name": "",
                    "type": "uint8"
                }
            ],
            "stateMutability": "view",
            "type": "function"
        },
        {
            "inputs": [],
            "name": "initialize",
            "outputs": [],
            "stateMutability": "nonpayable",
            "type": "function"
        },
        {
            "inputs": [],
            "name": "name",
            "outputs": [
                {
                    "internalType": "string",
                    "name": "",
                    "type": "string"
                }
            ],
            "stateMutability": "view",
            "type": "function"
        },
        {
            "inputs": [],
            "name": "symbol",
            "outputs": [
                {
                    "internalType": "string",
                    "name": "",
                    "type": "string"
                }
            ],
            "stateMutability": "view",
            "type": "function"
        },
        {
            "inputs": [],
            "name": "totalSupply",
            "outputs": [
                {
                    "internalType": "uint256",
                    "name": "",
                    "type": "uint256"
                }
            ],
            "stateMutability": "view",
            "type": "function"
        },
        {
            "inputs": [
                {
                    "internalType": "address",
                    "name": "to",
                    "type": "address"
                },
                {
                    "internalType": "uint256",
                    "name": "value",
                    "type": "uint256"
                }
            ],
            "name": "transfer",
            "outputs": [
                {
                    "internalType": "bool",
                    "name": "",
                    "type": "bool"
                }
            ],
            "stateMutability": "nonpayable",
            "type": "function"
        },
        {
            "inputs": [
                {
                    "internalType": "address",
                    "name": "from",
                    "type": "address"
                },
                {
                    "internalType": "address",
                    "name": "to",
                    "type": "address"
                },
                {
                    "internalType": "uint256",
                    "name": "value",
                    "type": "uint256"
                }
            ],
            "name": "transferFrom",
            "outputs": [
                {
                    "internalType": "bool",
                    "name": "",
                    "type": "bool"
                }
            ],
            "stateMutability": "nonpayable",
            "type": "function"
        }
    ],
    "bytecode": "608060405234801561000f575f80fd5b50610c648061001d5f395ff3fe608060405234801561000f575f80fd5b506004361061009b575f3560e01c806370a082311161006357806370a08231146101335780638129fc1c1461016757806395d89b4114610171578063a9059cbb14610179578063dd62ed3e1461018c575f80fd5b806306fdde031461009f578063095ea7b3146100bd57806318160ddd146100e057806323b872dd14610111578063313ce56714610124575b5f80fd5b6100a761019f565b6040516100b49190610875565b60405180910390f35b6100d06100cb3660046108db565b61025f565b60405190151581526020016100b4565b7f52c63247e1f47db19d5ce0460030c497f067ca4cebf71ba98eeadabe20bace02545b6040519081526020016100b4565b6100d061011f366004610903565b610278565b604051601281526020016100b4565b61010361014136600461093c565b6001600160a01b03165f9081525f80516020610c0f833981519152602052604090205490565b61016f61029b565b005b6100a7610409565b6100d06101873660046108db565b610447565b61010361019a36600461095c565b610454565b7f52c63247e1f47db19d5ce0460030c497f067ca4cebf71ba98eeadabe20bace0380546060915f80516020610c0f833981519152916101dd9061098d565b80601f01602080910402602001604051908101604052809291908181526020018280546102099061098d565b80156102545780601f1061022b57610100808354040283529160200191610254565b820191905f5260205f20905b81548152906001019060200180831161023757829003601f168201915b505050505091505090565b5f3361026c81858561049d565b60019150505b92915050565b5f336102858582856104af565b610290858585610517565b506001949350505050565b7ff0c57e16840df040f15088dc2f81fe391c3923bec73e23a9662efc9c229c6a008054600160401b810460ff16159067ffffffffffffffff165f811580156102e05750825b90505f8267ffffffffffffffff1660011480156102fc5750303b155b90508115801561030a575080155b156103285760405163f92ee8a960e01b815260040160405180910390fd5b845467ffffffffffffffff19166001178555831561035257845460ff60401b1916600160401b1785555b61039a6040518060400160405280600a8152602001692922a4a3902a37b5b2b760b11b815250604051806040016040528060048152602001635245494760e01b815250610574565b6103bc336103aa6012600a610ab9565b6103b790620f4240610ac7565b61058a565b831561040257845460ff60401b19168555604051600181527fc7f505b2f371ae2175ee4913f4499e1f2633a7b5936321eed1cdaeb6115181d29060200160405180910390a15b5050505050565b7f52c63247e1f47db19d5ce0460030c497f067ca4cebf71ba98eeadabe20bace0480546060915f80516020610c0f833981519152916101dd9061098d565b5f3361026c818585610517565b6001600160a01b039182165f9081527f52c63247e1f47db19d5ce0460030c497f067ca4cebf71ba98eeadabe20bace016020908152604080832093909416825291909152205490565b6104aa83838360016105be565b505050565b5f6104ba8484610454565b90505f198114610511578181101561050357604051637dc7a0d960e11b81526001600160a01b038416600482015260248101829052604481018390526064015b60405180910390fd5b61051184848484035f6105be565b50505050565b6001600160a01b03831661054057604051634b637e8f60e11b81525f60048201526024016104fa565b6001600160a01b0382166105695760405163ec442f0560e01b81525f60048201526024016104fa565b6104aa8383836106a1565b61057c6107da565b6105868282610825565b5050565b6001600160a01b0382166105b35760405163ec442f0560e01b81525f60048201526024016104fa565b6105865f83836106a1565b5f80516020610c0f8339815191526001600160a01b0385166105f55760405163e602df0560e01b81525f60048201526024016104fa565b6001600160a01b03841661061e57604051634a1406b160e11b81525f60048201526024016104fa565b6001600160a01b038086165f9081526001830160209081526040808320938816835292905220839055811561040257836001600160a01b0316856001600160a01b03167f8c5be1e5ebec7d5bd14f71427d1e84f3dd0314c0f7b2291e5b200ac8c7c3b9258560405161069291815260200190565b60405180910390a35050505050565b5f80516020610c0f8339815191526001600160a01b0384166106db5781816002015f8282546106d09190610ade565b9091555061074b9050565b6001600160a01b0384165f908152602082905260409020548281101561072d5760405163391434e360e21b81526001600160a01b038616600482015260248101829052604481018490526064016104fa565b6001600160a01b0385165f9081526020839052604090209083900390555b6001600160a01b038316610769576002810180548390039055610787565b6001600160a01b0383165f9081526020829052604090208054830190555b826001600160a01b0316846001600160a01b03167fddf252ad1be2c89b69c2b068fc378daa952ba7f163c4a11628f55a4df523b3ef846040516107cc91815260200190565b60405180910390a350505050565b7ff0c57e16840df040f15088dc2f81fe391c3923bec73e23a9662efc9c229c6a0054600160401b900460ff1661082357604051631afcd79f60e31b815260040160405180910390fd5b565b61082d6107da565b5f80516020610c0f8339815191527f52c63247e1f47db19d5ce0460030c497f067ca4cebf71ba98eeadabe20bace036108668482610b52565b50600481016105118382610b52565b5f6020808352835180828501525f5b818110156108a057858101830151858201604001528201610884565b505f604082860101526040601f19601f8301168501019250505092915050565b80356001600160a01b03811681146108d6575f80fd5b919050565b5f80604083850312156108ec575f80fd5b6108f5836108c0565b946020939093013593505050565b5f805f60608486031215610915575f80fd5b61091e846108c0565b925061092c602085016108c0565b9150604084013590509250925092565b5f6020828403121561094c575f80fd5b610955826108c0565b9392505050565b5f806040838503121561096d575f80fd5b610976836108c0565b9150610984602084016108c0565b90509250929050565b600181811c908216806109a157607f821691505b6020821081036109bf57634e487b7160e01b5f52602260045260245ffd5b50919050565b634e487b7160e01b5f52601160045260245ffd5b600181815b80851115610a1357815f19048211156109f9576109f96109c5565b80851615610a0657918102915b93841c93908002906109de565b509250929050565b5f82610a2957506001610272565b81610a3557505f610272565b8160018114610a4b5760028114610a5557610a71565b6001915050610272565b60ff841115610a6657610a666109c5565b50506001821b610272565b5060208310610133831016604e8410600b8410161715610a94575081810a610272565b610a9e83836109d9565b805f1904821115610ab157610ab16109c5565b029392505050565b5f61095560ff841683610a1b565b8082028115828204841417610272576102726109c5565b80820180821115610272576102726109c5565b634e487b7160e01b5f52604160045260245ffd5b601f8211156104aa575f81815260208120601f850160051c81016020861015610b2b5750805b601f850160051c820191505b81811015610b4a57828155600101610b37565b505050505050565b815167ffffffffffffffff811115610b6c57610b6c610af1565b610b8081610b7a845461098d565b84610b05565b602080601f831160018114610bb3575f8415610b9c5750858301515b5f19600386901b1c1916600185901b178555610b4a565b5f85815260208120601f198616915b82811015610be157888601518255948401946001909101908401610bc2565b5085821015610bfe57878501515f19600388901b60f8161c191681555b5050505050600190811b0190555056fe52c63247e1f47db19d5ce0460030c497f067ca4cebf71ba98eeadabe20bace00a26469706673582212204835a9d8421264ffd6497560c0ef6ebf75d8deb4c4a42b0a757861797889ae3364736f6c63430008140033",
    "sourcePath": "/Users/antonhenningsson/Documents/Blockchain/ProxyContract/contracts/ReigToken.sol",
    "compiler": {
        "name": "solc",
        "version": "0.8.20+commit.a1b79de6"
    },
    "functionHashes": {
        "allowance(address,address)": "dd62ed3e",
        "approve(address,uint256)": "095ea7b3",
        "balanceOf(address)": "70a08231",
        "decimals()": "313ce567",
        "initialize()": "8129fc1c",
        "name()": "06fdde03",
        "symbol()": "95d89b41",
        "totalSupply()": "18160ddd",
        "transfer(address,uint256)": "a9059cbb",
        "transferFrom(address,address,uint256)": "23b872dd"
    },
    "gasEstimates": {
        "creation": {
            "codeDepositCost": "634400",
            "executionCost": "668",
            "totalCost": "635068"
        },
        "external": {
            "allowance(address,address)": "infinite",
            "approve(address,uint256)": "infinite",
            "balanceOf(address)": "infinite",
            "decimals()": "265",
            "initialize()": "infinite",
            "name()": "infinite",
            "symbol()": "infinite",
            "totalSupply()": "2325",
            "transfer(address,uint256)": "infinite",
            "transferFrom(address,address,uint256)": "infinite"
        }
    }
}