{
    "contractName": "ReiToken",
    "abi": [
        {
            "inputs": [
                {
                    "internalType": "address",
                    "name": "spender",
                    "type": "address"
                },
                {
                    "internalType": "uint256",
                    "name": "allowance",
                    "type": "uint256"
                },
                {
                    "internalType": "uint256",
                    "name": "needed",
                    "type": "uint256"
                }
            ],
            "name": "ERC20InsufficientAllowance",
            "type": "error"
        },
        {
            "inputs": [
                {
                    "internalType": "address",
                    "name": "sender",
                    "type": "address"
                },
                {
                    "internalType": "uint256",
                    "name": "balance",
                    "type": "uint256"
                },
                {
                    "internalType": "uint256",
                    "name": "needed",
                    "type": "uint256"
                }
            ],
            "name": "ERC20InsufficientBalance",
            "type": "error"
        },
        {
            "inputs": [
                {
                    "internalType": "address",
                    "name": "approver",
                    "type": "address"
                }
            ],
            "name": "ERC20InvalidApprover",
            "type": "error"
        },
        {
            "inputs": [
                {
                    "internalType": "address",
                    "name": "receiver",
                    "type": "address"
                }
            ],
            "name": "ERC20InvalidReceiver",
            "type": "error"
        },
        {
            "inputs": [
                {
                    "internalType": "address",
                    "name": "sender",
                    "type": "address"
                }
            ],
            "name": "ERC20InvalidSender",
            "type": "error"
        },
        {
            "inputs": [
                {
                    "internalType": "address",
                    "name": "spender",
                    "type": "address"
                }
            ],
            "name": "ERC20InvalidSpender",
            "type": "error"
        },
        {
            "inputs": [],
            "name": "InvalidInitialization",
            "type": "error"
        },
        {
            "inputs": [],
            "name": "NotInitializing",
            "type": "error"
        },
        {
            "anonymous": false,
            "inputs": [
                {
                    "indexed": true,
                    "internalType": "address",
                    "name": "owner",
                    "type": "address"
                },
                {
                    "indexed": true,
                    "internalType": "address",
                    "name": "spender",
                    "type": "address"
                },
                {
                    "indexed": false,
                    "internalType": "uint256",
                    "name": "value",
                    "type": "uint256"
                }
            ],
            "name": "Approval",
            "type": "event"
        },
        {
            "anonymous": false,
            "inputs": [
                {
                    "indexed": false,
                    "internalType": "uint64",
                    "name": "version",
                    "type": "uint64"
                }
            ],
            "name": "Initialized",
            "type": "event"
        },
        {
            "anonymous": false,
            "inputs": [
                {
                    "indexed": true,
                    "internalType": "address",
                    "name": "from",
                    "type": "address"
                },
                {
                    "indexed": true,
                    "internalType": "address",
                    "name": "to",
                    "type": "address"
                },
                {
                    "indexed": false,
                    "internalType": "uint256",
                    "name": "value",
                    "type": "uint256"
                }
            ],
            "name": "Transfer",
            "type": "event"
        },
        {
            "inputs": [
                {
                    "internalType": "address",
                    "name": "owner",
                    "type": "address"
                },
                {
                    "internalType": "address",
                    "name": "spender",
                    "type": "address"
                }
            ],
            "name": "allowance",
            "outputs": [
                {
                    "internalType": "uint256",
                    "name": "",
                    "type": "uint256"
                }
            ],
            "stateMutability": "view",
            "type": "function"
        },
        {
            "inputs": [
                {
                    "internalType": "address",
                    "name": "spender",
                    "type": "address"
                },
                {
                    "internalType": "uint256",
                    "name": "amount",
                    "type": "uint256"
                }
            ],
            "name": "approve",
            "outputs": [
                {
                    "internalType": "bool",
                    "name": "",
                    "type": "bool"
                }
            ],
            "stateMutability": "nonpayable",
            "type": "function"
        },
        {
            "inputs": [
                {
                    "internalType": "address",
                    "name": "account",
                    "type": "address"
                }
            ],
            "name": "balanceOf",
            "outputs": [
                {
                    "internalType": "uint256",
                    "name": "",
                    "type": "uint256"
                }
            ],
            "stateMutability": "view",
            "type": "function"
        },
        {
            "inputs": [],
            "name": "decimals",
            "outputs": [
                {
                    "internalType": "uint8",
                    "name": "",
                    "type": "uint8"
                }
            ],
            "stateMutability": "view",
            "type": "function"
        },
        {
            "inputs": [
                {
                    "internalType": "string",
                    "name": "name",
                    "type": "string"
                },
                {
                    "internalType": "string",
                    "name": "symbol",
                    "type": "string"
                }
            ],
            "name": "initialize",
            "outputs": [],
            "stateMutability": "nonpayable",
            "type": "function"
        },
        {
            "inputs": [
                {
                    "internalType": "address",
                    "name": "to",
                    "type": "address"
                },
                {
                    "internalType": "uint256",
                    "name": "amount",
                    "type": "uint256"
                }
            ],
            "name": "mint",
            "outputs": [],
            "stateMutability": "nonpayable",
            "type": "function"
        },
        {
            "inputs": [],
            "name": "name",
            "outputs": [
                {
                    "internalType": "string",
                    "name": "",
                    "type": "string"
                }
            ],
            "stateMutability": "view",
            "type": "function"
        },
        {
            "inputs": [],
            "name": "symbol",
            "outputs": [
                {
                    "internalType": "string",
                    "name": "",
                    "type": "string"
                }
            ],
            "stateMutability": "view",
            "type": "function"
        },
        {
            "inputs": [],
            "name": "totalSupply",
            "outputs": [
                {
                    "internalType": "uint256",
                    "name": "",
                    "type": "uint256"
                }
            ],
            "stateMutability": "view",
            "type": "function"
        },
        {
            "inputs": [
                {
                    "internalType": "address",
                    "name": "to",
                    "type": "address"
                },
                {
                    "internalType": "uint256",
                    "name": "value",
                    "type": "uint256"
                }
            ],
            "name": "transfer",
            "outputs": [
                {
                    "internalType": "bool",
                    "name": "",
                    "type": "bool"
                }
            ],
            "stateMutability": "nonpayable",
            "type": "function"
        },
        {
            "inputs": [
                {
                    "internalType": "address",
                    "name": "from",
                    "type": "address"
                },
                {
                    "internalType": "address",
                    "name": "to",
                    "type": "address"
                },
                {
                    "internalType": "uint256",
                    "name": "value",
                    "type": "uint256"
                }
            ],
            "name": "transferFrom",
            "outputs": [
                {
                    "internalType": "bool",
                    "name": "",
                    "type": "bool"
                }
            ],
            "stateMutability": "nonpayable",
            "type": "function"
        }
    ],
    "bytecode": "608060405234801561000f575f80fd5b50610c588061001d5f395ff3fe608060405234801561000f575f80fd5b50600436106100a6575f3560e01c806340c10f191161006e57806340c10f191461013e5780634cd88b761461015357806370a082311461016657806395d89b411461019a578063a9059cbb146101a2578063dd62ed3e146101b5575f80fd5b806306fdde03146100aa578063095ea7b3146100c857806318160ddd146100eb57806323b872dd1461011c578063313ce5671461012f575b5f80fd5b6100b26101c8565b6040516100bf9190610894565b60405180910390f35b6100db6100d63660046108fa565b610288565b60405190151581526020016100bf565b7f52c63247e1f47db19d5ce0460030c497f067ca4cebf71ba98eeadabe20bace02545b6040519081526020016100bf565b6100db61012a366004610922565b61029c565b604051601281526020016100bf565b61015161014c3660046108fa565b6102bf565b005b6101516101613660046109f8565b6102cd565b61010e610174366004610a58565b6001600160a01b03165f9081525f80516020610c03833981519152602052604090205490565b6100b2610418565b6100db6101b03660046108fa565b610456565b61010e6101c3366004610a71565b61046d565b7f52c63247e1f47db19d5ce0460030c497f067ca4cebf71ba98eeadabe20bace0380546060915f80516020610c038339815191529161020690610aa2565b80601f016020809104026020016040519081016040528092919081815260200182805461023290610aa2565b801561027d5780601f106102545761010080835404028352916020019161027d565b820191905f5260205f20905b81548152906001019060200180831161026057829003601f168201915b505050505091505090565b5f61029383836104b6565b90505b92915050565b5f336102a98582856104c3565b6102b485858561052b565b506001949350505050565b6102c9828261058d565b5050565b7ff0c57e16840df040f15088dc2f81fe391c3923bec73e23a9662efc9c229c6a008054600160401b810460ff16159067ffffffffffffffff165f811580156103125750825b90505f8267ffffffffffffffff16600114801561032e5750303b155b90508115801561033c575080155b1561035a5760405163f92ee8a960e01b815260040160405180910390fd5b845467ffffffffffffffff19166001178555831561038457845460ff60401b1916600160401b1785555b6103c9604051806040016040528060088152602001672932b4aa37b5b2b760c11b8152506040518060400160405280600381526020016252454960e81b8152506105c1565b831561040f57845460ff60401b19168555604051600181527fc7f505b2f371ae2175ee4913f4499e1f2633a7b5936321eed1cdaeb6115181d29060200160405180910390a15b50505050505050565b7f52c63247e1f47db19d5ce0460030c497f067ca4cebf71ba98eeadabe20bace0480546060915f80516020610c038339815191529161020690610aa2565b5f3361046381858561052b565b5060019392505050565b6001600160a01b039182165f9081527f52c63247e1f47db19d5ce0460030c497f067ca4cebf71ba98eeadabe20bace016020908152604080832093909416825291909152205490565b5f336104638185856105d3565b5f6104ce848461046d565b90505f198114610525578181101561051757604051637dc7a0d960e11b81526001600160a01b038416600482015260248101829052604481018390526064015b60405180910390fd5b61052584848484035f6105dc565b50505050565b6001600160a01b03831661055457604051634b637e8f60e11b81525f600482015260240161050e565b6001600160a01b03821661057d5760405163ec442f0560e01b81525f600482015260240161050e565b6105888383836106c0565b505050565b6001600160a01b0382166105b65760405163ec442f0560e01b81525f600482015260240161050e565b6102c95f83836106c0565b6105c96107f9565b6102c98282610844565b61058883838360015b5f80516020610c038339815191526001600160a01b0385166106135760405163e602df0560e01b81525f600482015260240161050e565b6001600160a01b03841661063c57604051634a1406b160e11b81525f600482015260240161050e565b6001600160a01b038086165f908152600183016020908152604080832093881683529290522083905581156106b957836001600160a01b0316856001600160a01b03167f8c5be1e5ebec7d5bd14f71427d1e84f3dd0314c0f7b2291e5b200ac8c7c3b925856040516106b091815260200190565b60405180910390a35b5050505050565b5f80516020610c038339815191526001600160a01b0384166106fa5781816002015f8282546106ef9190610ada565b9091555061076a9050565b6001600160a01b0384165f908152602082905260409020548281101561074c5760405163391434e360e21b81526001600160a01b0386166004820152602481018290526044810184905260640161050e565b6001600160a01b0385165f9081526020839052604090209083900390555b6001600160a01b0383166107885760028101805483900390556107a6565b6001600160a01b0383165f9081526020829052604090208054830190555b826001600160a01b0316846001600160a01b03167fddf252ad1be2c89b69c2b068fc378daa952ba7f163c4a11628f55a4df523b3ef846040516107eb91815260200190565b60405180910390a350505050565b7ff0c57e16840df040f15088dc2f81fe391c3923bec73e23a9662efc9c229c6a0054600160401b900460ff1661084257604051631afcd79f60e31b815260040160405180910390fd5b565b61084c6107f9565b5f80516020610c038339815191527f52c63247e1f47db19d5ce0460030c497f067ca4cebf71ba98eeadabe20bace036108858482610b46565b50600481016105258382610b46565b5f6020808352835180828501525f5b818110156108bf578581018301518582016040015282016108a3565b505f604082860101526040601f19601f8301168501019250505092915050565b80356001600160a01b03811681146108f5575f80fd5b919050565b5f806040838503121561090b575f80fd5b610914836108df565b946020939093013593505050565b5f805f60608486031215610934575f80fd5b61093d846108df565b925061094b602085016108df565b9150604084013590509250925092565b634e487b7160e01b5f52604160045260245ffd5b5f82601f83011261097e575f80fd5b813567ffffffffffffffff808211156109995761099961095b565b604051601f8301601f19908116603f011681019082821181831017156109c1576109c161095b565b816040528381528660208588010111156109d9575f80fd5b836020870160208301375f602085830101528094505050505092915050565b5f8060408385031215610a09575f80fd5b823567ffffffffffffffff80821115610a20575f80fd5b610a2c8683870161096f565b93506020850135915080821115610a41575f80fd5b50610a4e8582860161096f565b9150509250929050565b5f60208284031215610a68575f80fd5b610293826108df565b5f8060408385031215610a82575f80fd5b610a8b836108df565b9150610a99602084016108df565b90509250929050565b600181811c90821680610ab657607f821691505b602082108103610ad457634e487b7160e01b5f52602260045260245ffd5b50919050565b8082018082111561029657634e487b7160e01b5f52601160045260245ffd5b601f821115610588575f81815260208120601f850160051c81016020861015610b1f5750805b601f850160051c820191505b81811015610b3e57828155600101610b2b565b505050505050565b815167ffffffffffffffff811115610b6057610b6061095b565b610b7481610b6e8454610aa2565b84610af9565b602080601f831160018114610ba7575f8415610b905750858301515b5f19600386901b1c1916600185901b178555610b3e565b5f85815260208120601f198616915b82811015610bd557888601518255948401946001909101908401610bb6565b5085821015610bf257878501515f19600388901b60f8161c191681555b5050505050600190811b0190555056fe52c63247e1f47db19d5ce0460030c497f067ca4cebf71ba98eeadabe20bace00a2646970667358221220c93b3b49e872e070ae7bf8aef0250e573893bfd8ae800109b5175079c8b8153c64736f6c63430008140033",
    "sourcePath": "/Users/antonhenningsson/Documents/Blockchain/ProxyContract/contracts/ReiToken.sol",
    "compiler": {
        "name": "solc",
        "version": "0.8.20+commit.a1b79de6"
    },
    "functionHashes": {
        "allowance(address,address)": "dd62ed3e",
        "approve(address,uint256)": "095ea7b3",
        "balanceOf(address)": "70a08231",
        "decimals()": "313ce567",
        "initialize(string,string)": "4cd88b76",
        "mint(address,uint256)": "40c10f19",
        "name()": "06fdde03",
        "symbol()": "95d89b41",
        "totalSupply()": "18160ddd",
        "transfer(address,uint256)": "a9059cbb",
        "transferFrom(address,address,uint256)": "23b872dd"
    },
    "gasEstimates": {
        "creation": {
            "codeDepositCost": "632000",
            "executionCost": "662",
            "totalCost": "632662"
        },
        "external": {
            "allowance(address,address)": "infinite",
            "approve(address,uint256)": "infinite",
            "balanceOf(address)": "infinite",
            "decimals()": "265",
            "initialize(string,string)": "infinite",
            "mint(address,uint256)": "infinite",
            "name()": "infinite",
            "symbol()": "infinite",
            "totalSupply()": "2325",
            "transfer(address,uint256)": "infinite",
            "transferFrom(address,address,uint256)": "infinite"
        }
    }
}