{
  "_format": "hh-sol-artifact-1",
  "contractName": "TokenAirdrop",
  "sourceName": "contracts/TokenAirdrop.sol",
  "abi": [
    {
      "inputs": [
        {
          "internalType": "address",
          "name": "target",
          "type": "address"
        }
      ],
      "name": "AddressEmptyCode",
      "type": "error"
    },
    {
      "inputs": [
        {
          "internalType": "address",
          "name": "implementation",
          "type": "address"
        }
      ],
      "name": "ERC1967InvalidImplementation",
      "type": "error"
    },
    {
      "inputs": [],
      "name": "ERC1967NonPayable",
      "type": "error"
    },
    {
      "inputs": [],
      "name": "FailedInnerCall",
      "type": "error"
    },
    {
      "inputs": [],
      "name": "InvalidInitialization",
      "type": "error"
    },
    {
      "inputs": [],
      "name": "NotInitializing",
      "type": "error"
    },
    {
      "inputs": [
        {
          "internalType": "address",
          "name": "owner",
          "type": "address"
        }
      ],
      "name": "OwnableInvalidOwner",
      "type": "error"
    },
    {
      "inputs": [
        {
          "internalType": "address",
          "name": "account",
          "type": "address"
        }
      ],
      "name": "OwnableUnauthorizedAccount",
      "type": "error"
    },
    {
      "inputs": [],
      "name": "UUPSUnauthorizedCallContext",
      "type": "error"
    },
    {
      "inputs": [
        {
          "internalType": "bytes32",
          "name": "slot",
          "type": "bytes32"
        }
      ],
      "name": "UUPSUnsupportedProxiableUUID",
      "type": "error"
    },
    {
      "anonymous": false,
      "inputs": [
        {
          "indexed": false,
          "internalType": "uint64",
          "name": "version",
          "type": "uint64"
        }
      ],
      "name": "Initialized",
      "type": "event"
    },
    {
      "anonymous": false,
      "inputs": [
        {
          "indexed": true,
          "internalType": "address",
          "name": "previousOwner",
          "type": "address"
        },
        {
          "indexed": true,
          "internalType": "address",
          "name": "newOwner",
          "type": "address"
        }
      ],
      "name": "OwnershipTransferred",
      "type": "event"
    },
    {
      "anonymous": false,
      "inputs": [
        {
          "indexed": true,
          "internalType": "address",
          "name": "to",
          "type": "address"
        },
        {
          "indexed": false,
          "internalType": "uint256",
          "name": "amount",
          "type": "uint256"
        }
      ],
      "name": "TokensDistributed",
      "type": "event"
    },
    {
      "anonymous": false,
      "inputs": [
        {
          "indexed": true,
          "internalType": "address",
          "name": "implementation",
          "type": "address"
        }
      ],
      "name": "Upgraded",
      "type": "event"
    },
    {
      "anonymous": false,
      "inputs": [
        {
          "indexed": true,
          "internalType": "address",
          "name": "account",
          "type": "address"
        },
        {
          "indexed": false,
          "internalType": "uint256",
          "name": "allowedAmount",
          "type": "uint256"
        }
      ],
      "name": "Whitelisted",
      "type": "event"
    },
    {
      "inputs": [],
      "name": "UPGRADE_INTERFACE_VERSION",
      "outputs": [
        {
          "internalType": "string",
          "name": "",
          "type": "string"
        }
      ],
      "stateMutability": "view",
      "type": "function"
    },
    {
      "inputs": [
        {
          "internalType": "address",
          "name": "account",
          "type": "address"
        }
      ],
      "name": "allowedToReceive",
      "outputs": [
        {
          "internalType": "uint256",
          "name": "",
          "type": "uint256"
        }
      ],
      "stateMutability": "view",
      "type": "function"
    },
    {
      "inputs": [
        {
          "internalType": "address[]",
          "name": "recipients",
          "type": "address[]"
        }
      ],
      "name": "distributeTokens",
      "outputs": [],
      "stateMutability": "nonpayable",
      "type": "function"
    },
    {
      "inputs": [
        {
          "internalType": "contract ERC20Upgradeable",
          "name": "_token",
          "type": "address"
        },
        {
          "internalType": "address",
          "name": "initialOwner",
          "type": "address"
        }
      ],
      "name": "initialize",
      "outputs": [],
      "stateMutability": "nonpayable",
      "type": "function"
    },
    {
      "inputs": [],
      "name": "owner",
      "outputs": [
        {
          "internalType": "address",
          "name": "",
          "type": "address"
        }
      ],
      "stateMutability": "view",
      "type": "function"
    },
    {
      "inputs": [],
      "name": "proxiableUUID",
      "outputs": [
        {
          "internalType": "bytes32",
          "name": "",
          "type": "bytes32"
        }
      ],
      "stateMutability": "view",
      "type": "function"
    },
    {
      "inputs": [],
      "name": "renounceOwnership",
      "outputs": [],
      "stateMutability": "nonpayable",
      "type": "function"
    },
    {
      "inputs": [
        {
          "internalType": "address[]",
          "name": "addresses",
          "type": "address[]"
        },
        {
          "internalType": "uint256[]",
          "name": "amounts",
          "type": "uint256[]"
        }
      ],
      "name": "setWhiteList",
      "outputs": [],
      "stateMutability": "nonpayable",
      "type": "function"
    },
    {
      "inputs": [],
      "name": "token",
      "outputs": [
        {
          "internalType": "contract ERC20Upgradeable",
          "name": "",
          "type": "address"
        }
      ],
      "stateMutability": "view",
      "type": "function"
    },
    {
      "inputs": [
        {
          "internalType": "address",
          "name": "newOwner",
          "type": "address"
        }
      ],
      "name": "transferOwnership",
      "outputs": [],
      "stateMutability": "nonpayable",
      "type": "function"
    },
    {
      "inputs": [
        {
          "internalType": "address",
          "name": "newImplementation",
          "type": "address"
        },
        {
          "internalType": "bytes",
          "name": "data",
          "type": "bytes"
        }
      ],
      "name": "upgradeToAndCall",
      "outputs": [],
      "stateMutability": "payable",
      "type": "function"
    }
  ],
  "bytecode": "0x60a06040523060805234801561001457600080fd5b5060805161105461003e600039600081816108370152818161086001526109a101526110546000f3fe60806040526004361061009c5760003560e01c80638da5cb5b116100645780638da5cb5b14610133578063ad3cb1cc14610184578063d3ef3549146101c2578063e3946556146101f8578063f2fde38b14610218578063fc0c546a1461023857600080fd5b8063485cc955146100a15780634f1ef286146100c357806352d1902d146100d6578063715018a6146100fe5780638895135214610113575b600080fd5b3480156100ad57600080fd5b506100c16100bc366004610ce9565b610258565b005b6100c16100d1366004610d38565b610384565b3480156100e257600080fd5b506100eb6103a3565b6040519081526020015b60405180910390f35b34801561010a57600080fd5b506100c16103c0565b34801561011f57600080fd5b506100c161012e366004610e48565b6103d4565b34801561013f57600080fd5b507f9016d09d72d40fdae2fd8ceac6b6234c7706214fd39c1cd1e609a0528c199300546001600160a01b03165b6040516001600160a01b0390911681526020016100f5565b34801561019057600080fd5b506101b5604051806040016040528060058152602001640352e302e360dc1b81525081565b6040516100f59190610eae565b3480156101ce57600080fd5b506100eb6101dd366004610ee1565b6001600160a01b031660009081526001602052604090205490565b34801561020457600080fd5b506100c1610213366004610efe565b610675565b34801561022457600080fd5b506100c1610233366004610ee1565b6107dd565b34801561024457600080fd5b5060005461016c906001600160a01b031681565b7ff0c57e16840df040f15088dc2f81fe391c3923bec73e23a9662efc9c229c6a008054600160401b810460ff16159067ffffffffffffffff1660008115801561029e5750825b905060008267ffffffffffffffff1660011480156102bb5750303b155b9050811580156102c9575080155b156102e75760405163f92ee8a960e01b815260040160405180910390fd5b845467ffffffffffffffff19166001178555831561031157845460ff60401b1916600160401b1785555b61031a8661081b565b600080546001600160a01b0319166001600160a01b038916179055831561037b57845460ff60401b19168555604051600181527fc7f505b2f371ae2175ee4913f4499e1f2633a7b5936321eed1cdaeb6115181d29060200160405180910390a15b50505050505050565b61038c61082c565b610395826108d1565b61039f82826108d9565b5050565b60006103ad610996565b50600080516020610fff83398151915290565b6103c86109df565b6103d26000610a3a565b565b6103dc6109df565b60005b81811015610670576000600160008585858181106103ff576103ff610f6a565b90506020020160208101906104149190610ee1565b6001600160a01b03166001600160a01b03168152602001908152602001600020549050600081116104b25760405162461bcd60e51b815260206004820152603b60248201527f526563697069656e74206973206e6f742077686974656c6973746564206f722060448201527f68617320616c726561647920726563656976656420746f6b656e73000000000060648201526084015b60405180910390fd5b6000600160008686868181106104ca576104ca610f6a565b90506020020160208101906104df9190610ee1565b6001600160a01b03908116825260208201929092526040016000908120929092559054166323b872dd3386868681811061051b5761051b610f6a565b90506020020160208101906105309190610ee1565b6040516001600160e01b031960e085901b1681526001600160a01b03928316600482015291166024820152604481018490526064016020604051808303816000875af1158015610584573d6000803e3d6000fd5b505050506040513d601f19601f820116820180604052508101906105a89190610f80565b6105f45760405162461bcd60e51b815260206004820152601960248201527f5472616e73666572206f6620746f6b656e73206661696c65640000000000000060448201526064016104a9565b83838381811061060657610606610f6a565b905060200201602081019061061b9190610ee1565b6001600160a01b03167f16b0da2ffcb90c6723317bd637d9aad7f04711f42bbe0ac0918ebe10f1f9001c8260405161065591815260200190565b60405180910390a2508061066881610fa2565b9150506103df565b505050565b61067d6109df565b8281146106da5760405162461bcd60e51b815260206004820152602560248201527f41646472657373657320616e6420616d6f756e7473206c656e677468206d69736044820152640dac2e8c6d60db1b60648201526084016104a9565b60005b838110156107d6578282828181106106f7576106f7610f6a565b905060200201356001600087878581811061071457610714610f6a565b90506020020160208101906107299190610ee1565b6001600160a01b0316815260208101919091526040016000205584848281811061075557610755610f6a565b905060200201602081019061076a9190610ee1565b6001600160a01b03167f6ea640312e182de387819fbeb13be00db3171a445412852248559054871c41998484848181106107a6576107a6610f6a565b905060200201356040516107bc91815260200190565b60405180910390a2806107ce81610fa2565b9150506106dd565b5050505050565b6107e56109df565b6001600160a01b03811661080f57604051631e4fbdf760e01b8152600060048201526024016104a9565b61081881610a3a565b50565b610823610aab565b61081881610af4565b306001600160a01b037f00000000000000000000000000000000000000000000000000000000000000001614806108b357507f00000000000000000000000000000000000000000000000000000000000000006001600160a01b03166108a7600080516020610fff833981519152546001600160a01b031690565b6001600160a01b031614155b156103d25760405163703e46dd60e11b815260040160405180910390fd5b6108186109df565b816001600160a01b03166352d1902d6040518163ffffffff1660e01b8152600401602060405180830381865afa925050508015610933575060408051601f3d908101601f1916820190925261093091810190610fc9565b60015b61095b57604051634c9c8ce360e01b81526001600160a01b03831660048201526024016104a9565b600080516020610fff833981519152811461098c57604051632a87526960e21b8152600481018290526024016104a9565b6106708383610afc565b306001600160a01b037f000000000000000000000000000000000000000000000000000000000000000016146103d25760405163703e46dd60e11b815260040160405180910390fd5b33610a117f9016d09d72d40fdae2fd8ceac6b6234c7706214fd39c1cd1e609a0528c199300546001600160a01b031690565b6001600160a01b0316146103d25760405163118cdaa760e01b81523360048201526024016104a9565b7f9016d09d72d40fdae2fd8ceac6b6234c7706214fd39c1cd1e609a0528c19930080546001600160a01b031981166001600160a01b03848116918217845560405192169182907f8be0079c531659141344cd1fd0a4f28419497f9722a3daafe3b4186f6b6457e090600090a3505050565b7ff0c57e16840df040f15088dc2f81fe391c3923bec73e23a9662efc9c229c6a0054600160401b900460ff166103d257604051631afcd79f60e31b815260040160405180910390fd5b6107e5610aab565b610b0582610b52565b6040516001600160a01b038316907fbc7cd75a20ee27fd9adebab32041f755214dbc6bffa90cc0225b39da2e5c2d3b90600090a2805115610b4a576106708282610bb7565b61039f610c2d565b806001600160a01b03163b600003610b8857604051634c9c8ce360e01b81526001600160a01b03821660048201526024016104a9565b600080516020610fff83398151915280546001600160a01b0319166001600160a01b0392909216919091179055565b6060600080846001600160a01b031684604051610bd49190610fe2565b600060405180830381855af49150503d8060008114610c0f576040519150601f19603f3d011682016040523d82523d6000602084013e610c14565b606091505b5091509150610c24858383610c4c565b95945050505050565b34156103d25760405163b398979f60e01b815260040160405180910390fd5b606082610c6157610c5c82610cab565b610ca4565b8151158015610c7857506001600160a01b0384163b155b15610ca157604051639996b31560e01b81526001600160a01b03851660048201526024016104a9565b50805b9392505050565b805115610cbb5780518082602001fd5b604051630a12f52160e11b815260040160405180910390fd5b6001600160a01b038116811461081857600080fd5b60008060408385031215610cfc57600080fd5b8235610d0781610cd4565b91506020830135610d1781610cd4565b809150509250929050565b634e487b7160e01b600052604160045260246000fd5b60008060408385031215610d4b57600080fd5b8235610d5681610cd4565b9150602083013567ffffffffffffffff80821115610d7357600080fd5b818501915085601f830112610d8757600080fd5b813581811115610d9957610d99610d22565b604051601f8201601f19908116603f01168101908382118183101715610dc157610dc1610d22565b81604052828152886020848701011115610dda57600080fd5b8260208601602083013760006020848301015280955050505050509250929050565b60008083601f840112610e0e57600080fd5b50813567ffffffffffffffff811115610e2657600080fd5b6020830191508360208260051b8501011115610e4157600080fd5b9250929050565b60008060208385031215610e5b57600080fd5b823567ffffffffffffffff811115610e7257600080fd5b610e7e85828601610dfc565b90969095509350505050565b60005b83811015610ea5578181015183820152602001610e8d565b50506000910152565b6020815260008251806020840152610ecd816040850160208701610e8a565b601f01601f19169190910160400192915050565b600060208284031215610ef357600080fd5b8135610ca481610cd4565b60008060008060408587031215610f1457600080fd5b843567ffffffffffffffff80821115610f2c57600080fd5b610f3888838901610dfc565b90965094506020870135915080821115610f5157600080fd5b50610f5e87828801610dfc565b95989497509550505050565b634e487b7160e01b600052603260045260246000fd5b600060208284031215610f9257600080fd5b81518015158114610ca457600080fd5b600060018201610fc257634e487b7160e01b600052601160045260246000fd5b5060010190565b600060208284031215610fdb57600080fd5b5051919050565b60008251610ff4818460208701610e8a565b919091019291505056fe360894a13ba1a3210667c828492db98dca3e2076cc3735a920a3ca505d382bbca2646970667358221220274191f31fbe96e60e45f30001764ebd3d86d963e3cc6582435c74130b43cb5b64736f6c63430008140033",
  "linkReferences": {},
  "deployedLinkReferences": {}
}