{
  "_format": "hh-sol-artifact-1",
  "contractName": "REIGToken",
  "sourceName": "contracts/ReigToken.sol",
  "abi": [
    {
      "inputs": [
        {
          "internalType": "address",
          "name": "spender",
          "type": "address"
        },
        {
          "internalType": "uint256",
          "name": "allowance",
          "type": "uint256"
        },
        {
          "internalType": "uint256",
          "name": "needed",
          "type": "uint256"
        }
      ],
      "name": "ERC20InsufficientAllowance",
      "type": "error"
    },
    {
      "inputs": [
        {
          "internalType": "address",
          "name": "sender",
          "type": "address"
        },
        {
          "internalType": "uint256",
          "name": "balance",
          "type": "uint256"
        },
        {
          "internalType": "uint256",
          "name": "needed",
          "type": "uint256"
        }
      ],
      "name": "ERC20InsufficientBalance",
      "type": "error"
    },
    {
      "inputs": [
        {
          "internalType": "address",
          "name": "approver",
          "type": "address"
        }
      ],
      "name": "ERC20InvalidApprover",
      "type": "error"
    },
    {
      "inputs": [
        {
          "internalType": "address",
          "name": "receiver",
          "type": "address"
        }
      ],
      "name": "ERC20InvalidReceiver",
      "type": "error"
    },
    {
      "inputs": [
        {
          "internalType": "address",
          "name": "sender",
          "type": "address"
        }
      ],
      "name": "ERC20InvalidSender",
      "type": "error"
    },
    {
      "inputs": [
        {
          "internalType": "address",
          "name": "spender",
          "type": "address"
        }
      ],
      "name": "ERC20InvalidSpender",
      "type": "error"
    },
    {
      "inputs": [],
      "name": "InvalidInitialization",
      "type": "error"
    },
    {
      "inputs": [],
      "name": "NotInitializing",
      "type": "error"
    },
    {
      "anonymous": false,
      "inputs": [
        {
          "indexed": true,
          "internalType": "address",
          "name": "owner",
          "type": "address"
        },
        {
          "indexed": true,
          "internalType": "address",
          "name": "spender",
          "type": "address"
        },
        {
          "indexed": false,
          "internalType": "uint256",
          "name": "value",
          "type": "uint256"
        }
      ],
      "name": "Approval",
      "type": "event"
    },
    {
      "anonymous": false,
      "inputs": [
        {
          "indexed": false,
          "internalType": "uint64",
          "name": "version",
          "type": "uint64"
        }
      ],
      "name": "Initialized",
      "type": "event"
    },
    {
      "anonymous": false,
      "inputs": [
        {
          "indexed": true,
          "internalType": "address",
          "name": "from",
          "type": "address"
        },
        {
          "indexed": true,
          "internalType": "address",
          "name": "to",
          "type": "address"
        },
        {
          "indexed": false,
          "internalType": "uint256",
          "name": "value",
          "type": "uint256"
        }
      ],
      "name": "Transfer",
      "type": "event"
    },
    {
      "inputs": [
        {
          "internalType": "address",
          "name": "owner",
          "type": "address"
        },
        {
          "internalType": "address",
          "name": "spender",
          "type": "address"
        }
      ],
      "name": "allowance",
      "outputs": [
        {
          "internalType": "uint256",
          "name": "",
          "type": "uint256"
        }
      ],
      "stateMutability": "view",
      "type": "function"
    },
    {
      "inputs": [
        {
          "internalType": "address",
          "name": "spender",
          "type": "address"
        },
        {
          "internalType": "uint256",
          "name": "value",
          "type": "uint256"
        }
      ],
      "name": "approve",
      "outputs": [
        {
          "internalType": "bool",
          "name": "",
          "type": "bool"
        }
      ],
      "stateMutability": "nonpayable",
      "type": "function"
    },
    {
      "inputs": [
        {
          "internalType": "address",
          "name": "account",
          "type": "address"
        }
      ],
      "name": "balanceOf",
      "outputs": [
        {
          "internalType": "uint256",
          "name": "",
          "type": "uint256"
        }
      ],
      "stateMutability": "view",
      "type": "function"
    },
    {
      "inputs": [],
      "name": "decimals",
      "outputs": [
        {
          "internalType": "uint8",
          "name": "",
          "type": "uint8"
        }
      ],
      "stateMutability": "view",
      "type": "function"
    },
    {
      "inputs": [],
      "name": "initialize",
      "outputs": [],
      "stateMutability": "nonpayable",
      "type": "function"
    },
    {
      "inputs": [],
      "name": "name",
      "outputs": [
        {
          "internalType": "string",
          "name": "",
          "type": "string"
        }
      ],
      "stateMutability": "view",
      "type": "function"
    },
    {
      "inputs": [],
      "name": "symbol",
      "outputs": [
        {
          "internalType": "string",
          "name": "",
          "type": "string"
        }
      ],
      "stateMutability": "view",
      "type": "function"
    },
    {
      "inputs": [],
      "name": "totalSupply",
      "outputs": [
        {
          "internalType": "uint256",
          "name": "",
          "type": "uint256"
        }
      ],
      "stateMutability": "view",
      "type": "function"
    },
    {
      "inputs": [
        {
          "internalType": "address",
          "name": "to",
          "type": "address"
        },
        {
          "internalType": "uint256",
          "name": "value",
          "type": "uint256"
        }
      ],
      "name": "transfer",
      "outputs": [
        {
          "internalType": "bool",
          "name": "",
          "type": "bool"
        }
      ],
      "stateMutability": "nonpayable",
      "type": "function"
    },
    {
      "inputs": [
        {
          "internalType": "address",
          "name": "from",
          "type": "address"
        },
        {
          "internalType": "address",
          "name": "to",
          "type": "address"
        },
        {
          "internalType": "uint256",
          "name": "value",
          "type": "uint256"
        }
      ],
      "name": "transferFrom",
      "outputs": [
        {
          "internalType": "bool",
          "name": "",
          "type": "bool"
        }
      ],
      "stateMutability": "nonpayable",
      "type": "function"
    }
  ],
  "bytecode": "0x608060405234801561001057600080fd5b50610ca2806100206000396000f3fe608060405234801561001057600080fd5b506004361061009e5760003560e01c806370a082311161006657806370a08231146101375780638129fc1c1461016d57806395d89b4114610177578063a9059cbb1461017f578063dd62ed3e1461019257600080fd5b806306fdde03146100a3578063095ea7b3146100c157806318160ddd146100e457806323b872dd14610115578063313ce56714610128575b600080fd5b6100ab6101a5565b6040516100b89190610896565b60405180910390f35b6100d46100cf366004610900565b610268565b60405190151581526020016100b8565b7f52c63247e1f47db19d5ce0460030c497f067ca4cebf71ba98eeadabe20bace02545b6040519081526020016100b8565b6100d461012336600461092a565b610282565b604051601281526020016100b8565b610107610145366004610966565b6001600160a01b03166000908152600080516020610c4d833981519152602052604090205490565b6101756102a6565b005b6100ab610416565b6100d461018d366004610900565b610455565b6101076101a0366004610988565b610463565b7f52c63247e1f47db19d5ce0460030c497f067ca4cebf71ba98eeadabe20bace038054606091600080516020610c4d833981519152916101e4906109bb565b80601f0160208091040260200160405190810160405280929190818152602001828054610210906109bb565b801561025d5780601f106102325761010080835404028352916020019161025d565b820191906000526020600020905b81548152906001019060200180831161024057829003601f168201915b505050505091505090565b6000336102768185856104ad565b60019150505b92915050565b6000336102908582856104bf565b61029b85858561052a565b506001949350505050565b7ff0c57e16840df040f15088dc2f81fe391c3923bec73e23a9662efc9c229c6a008054600160401b810460ff16159067ffffffffffffffff166000811580156102ec5750825b905060008267ffffffffffffffff1660011480156103095750303b155b905081158015610317575080155b156103355760405163f92ee8a960e01b815260040160405180910390fd5b845467ffffffffffffffff19166001178555831561035f57845460ff60401b1916600160401b1785555b6103a76040518060400160405280600a8152602001692922a4a3902a37b5b2b760b11b815250604051806040016040528060048152602001635245494760e01b815250610589565b6103c9336103b76012600a610aef565b6103c490620f4240610afe565b61059f565b831561040f57845460ff60401b19168555604051600181527fc7f505b2f371ae2175ee4913f4499e1f2633a7b5936321eed1cdaeb6115181d29060200160405180910390a15b5050505050565b7f52c63247e1f47db19d5ce0460030c497f067ca4cebf71ba98eeadabe20bace048054606091600080516020610c4d833981519152916101e4906109bb565b60003361027681858561052a565b6001600160a01b0391821660009081527f52c63247e1f47db19d5ce0460030c497f067ca4cebf71ba98eeadabe20bace016020908152604080832093909416825291909152205490565b6104ba83838360016105d5565b505050565b60006104cb8484610463565b90506000198114610524578181101561051557604051637dc7a0d960e11b81526001600160a01b038416600482015260248101829052604481018390526064015b60405180910390fd5b610524848484840360006105d5565b50505050565b6001600160a01b03831661055457604051634b637e8f60e11b81526000600482015260240161050c565b6001600160a01b03821661057e5760405163ec442f0560e01b81526000600482015260240161050c565b6104ba8383836106bc565b6105916107fa565b61059b8282610845565b5050565b6001600160a01b0382166105c95760405163ec442f0560e01b81526000600482015260240161050c565b61059b600083836106bc565b600080516020610c4d8339815191526001600160a01b03851661060e5760405163e602df0560e01b81526000600482015260240161050c565b6001600160a01b03841661063857604051634a1406b160e11b81526000600482015260240161050c565b6001600160a01b0380861660009081526001830160209081526040808320938816835292905220839055811561040f57836001600160a01b0316856001600160a01b03167f8c5be1e5ebec7d5bd14f71427d1e84f3dd0314c0f7b2291e5b200ac8c7c3b925856040516106ad91815260200190565b60405180910390a35050505050565b600080516020610c4d8339815191526001600160a01b0384166106f857818160020160008282546106ed9190610b15565b9091555061076a9050565b6001600160a01b0384166000908152602082905260409020548281101561074b5760405163391434e360e21b81526001600160a01b0386166004820152602481018290526044810184905260640161050c565b6001600160a01b03851660009081526020839052604090209083900390555b6001600160a01b0383166107885760028101805483900390556107a7565b6001600160a01b03831660009081526020829052604090208054830190555b826001600160a01b0316846001600160a01b03167fddf252ad1be2c89b69c2b068fc378daa952ba7f163c4a11628f55a4df523b3ef846040516107ec91815260200190565b60405180910390a350505050565b7ff0c57e16840df040f15088dc2f81fe391c3923bec73e23a9662efc9c229c6a0054600160401b900460ff1661084357604051631afcd79f60e31b815260040160405180910390fd5b565b61084d6107fa565b600080516020610c4d8339815191527f52c63247e1f47db19d5ce0460030c497f067ca4cebf71ba98eeadabe20bace036108878482610b8c565b50600481016105248382610b8c565b600060208083528351808285015260005b818110156108c3578581018301518582016040015282016108a7565b506000604082860101526040601f19601f8301168501019250505092915050565b80356001600160a01b03811681146108fb57600080fd5b919050565b6000806040838503121561091357600080fd5b61091c836108e4565b946020939093013593505050565b60008060006060848603121561093f57600080fd5b610948846108e4565b9250610956602085016108e4565b9150604084013590509250925092565b60006020828403121561097857600080fd5b610981826108e4565b9392505050565b6000806040838503121561099b57600080fd5b6109a4836108e4565b91506109b2602084016108e4565b90509250929050565b600181811c908216806109cf57607f821691505b6020821081036109ef57634e487b7160e01b600052602260045260246000fd5b50919050565b634e487b7160e01b600052601160045260246000fd5b600181815b80851115610a46578160001904821115610a2c57610a2c6109f5565b80851615610a3957918102915b93841c9390800290610a10565b509250929050565b600082610a5d5750600161027c565b81610a6a5750600061027c565b8160018114610a805760028114610a8a57610aa6565b600191505061027c565b60ff841115610a9b57610a9b6109f5565b50506001821b61027c565b5060208310610133831016604e8410600b8410161715610ac9575081810a61027c565b610ad38383610a0b565b8060001904821115610ae757610ae76109f5565b029392505050565b600061098160ff841683610a4e565b808202811582820484141761027c5761027c6109f5565b8082018082111561027c5761027c6109f5565b634e487b7160e01b600052604160045260246000fd5b601f8211156104ba57600081815260208120601f850160051c81016020861015610b655750805b601f850160051c820191505b81811015610b8457828155600101610b71565b505050505050565b815167ffffffffffffffff811115610ba657610ba6610b28565b610bba81610bb484546109bb565b84610b3e565b602080601f831160018114610bef5760008415610bd75750858301515b600019600386901b1c1916600185901b178555610b84565b600085815260208120601f198616915b82811015610c1e57888601518255948401946001909101908401610bff565b5085821015610c3c5787850151600019600388901b60f8161c191681555b5050505050600190811b0190555056fe52c63247e1f47db19d5ce0460030c497f067ca4cebf71ba98eeadabe20bace00a264697066735822122032999783032262c02533f11f8cc04d1796c008a398ef6e2cf12ee109a366eb1264736f6c63430008140033",
  "linkReferences": {},
  "deployedLinkReferences": {}
}